:04000000F0EF0BF022
:100800000054656D7020696E76616C6964612100C9
:100810000054656D7020646573656A6164613A00B7
:100820000054656D7020706173736F3A000044531B
:100830004A3A2000524C3A200049433A0044463A92
:0508400000513A000028
:10084600960E016E120E026E06EC0CF0840E016E10
:10085600120E026E06EC0CF0720E016E120E026E95
:1008660006EC0CF0A80E016E120E026E06EC0CF0F1
:10087600020E336E970EF3EC04F033C040F034C032
:1008860041F035C042F036C043F0720E446E1EECA5
:1008960006F0020E336E970EF3EC04F04B50335C09
:1008A600386E4C503458396E4D5035583A6E4E505D
:1008B60036583B6E5FEC0AF038C040F039C041F064
:1008C6003AC042F03BC043F0A80E446E1EEC06F060
:1008D6004BC040F04CC041F04DC042F04EC043F01A
:1008E600840E446E1EEC06F04F50406E416A426A1A
:1008F600436A960E446E1EEC06F05050406E416AF6
:10090600426A436A600E446E1EEC06F0340E066EB2
:100916000650D8A4080E076E000E086E750E096EF6
:100926003AEC08F0720E066E076A040E086E750E33
:10093600096E3AEC08F02E0E066E0650D8A4080E84
:10094600076E080E086E750E096E3AEC08F0840EF6
:10095600066E076A0D0E086E750E096E3AEC08F003
:10096600390E066E0650D8A4080E076E000E086EE5
:10097600640E096E3AEC08F0960E066E076A030ED0
:10098600086E640E096E3AEC08F0410E066E0650CB
:10099600D8A4080E076E060E086E640E096E3AECB1
:1009A60008F0600E066E076A080E086E640E096E81
:1009B6003AEC08F03D0E066E0650D8A4080E076EF7
:1009C6000A0E086E640E096E3AEC08F0A80E066E62
:1009D600076A0D0E086E640E096E3AEC08F01200F6
:1009E600376E37507FEC0CF0A1EC0CF097EC0CF066
:1009F6000009D8B492D0FAD7E10E106EFA0E116E35
:100A06003E0E126E8AEC0CF001C009F002C00AF02C
:100A1600A5EC0BF009C00DF00AC00EF00BC00FF0EC
:100A26009DEC06F00DC01CF00EC01DF00FC01EF0B0
:100A360017EC07F01CC02BF01DC02CF0000E2E6E1C
:100A46000A0E2D6E0CEC09F02BC033F02CC034F0DE
:100A5600000E34BEFF0E356E366E1200E10E106EBD
:100A6600FA0E116E3E0E126E8AEC0CF001C009F001
:100A760002C00AF0A5EC0BF009C00DF00AC00EF09A
:100A86000BC00FF09DEC06F00DC01CF00EC01DF063
:100A96000FC01EF017EC07F01CC02BF01DC02CF089
:100AA600000E2E6E0A0E2D6E8FEC09F02BC033F061
:100AB6002CC034F0000E34BEFF0E356E366E1200BA
:100AC600E10E106EFA0E116E3E0E126E8AEC0CF0EE
:100AD60001C009F002C00AF0A5EC0BF009C00DF048
:100AE6000AC00EF00BC00FF09DEC06F00DC01CF016
:100AF6000EC01DF00FC01EF017EC07F01CC033F03F
:100B06001DC034F0000E34BEFF0E356E366E120078
:100B1600336834683568366812003350000AD8B432
:100B26009DD7010AD8B468D7030AD8B4C9D7F0D775
:100B360020EEBAF010EE0BF00B0EDBCFE3FFE8066B
:100B4600FCE2000E176E000E196E71D0010E8C6E4F
:100B56006BD0000E186E18500B0FD96EDA6A8350E0
:100B6600DE18D8A45BD018500B0FD96EDA6A840E43
:100B7600DE18D8A409D008501924D96EDA6A000EF6
:100B8600DF6E010E176E31D018500B0FD96EDA6A70
:100B9600810EDE18D8A416D01950D8B413D0190671
:100BA60008501924D96EDA6A000EDF6E19C003F0F8
:100BB600640E046E08501924D96EDA6ADF50EEEC22
:100BC6000AF013D008501924D96EDA6A1850300F7B
:100BD600DF6E19C003F0640E046E08501924D96E36
:100BE600DA6ADF50EEEC0AF0192A83AE02D0010E63
:100BF60001D0000E096E83AC02D0010E01D0000EAA
:100C06000A6E000E83B8010E83BA010EE8A002D068
:100C1600010E01D0000E0A100910E7E1182A0B0E8A
:100C2600186499D7D8908C36040E8C6492D71750D6
:100C3600D8A412008BD7010E4A6E000E456E40C036
:100C460046F041C047F042C048F043C049F0495021
:100C56004810471004E10A0E465CD8A053D00A0E8D
:100C66004A02F3504A6E46C001F047C002F048C03F
:100C760003F049C004F00A0E056E000E066E000E63
:100C8600076E000E086E4EEC09F001C046F002C079
:100C960047F003C048F004C049F0D9D74450452472
:100CA600D96EDA6A40C001F041C002F042C003F0DA
:100CB60043C004F04A50056E066A076A086A4EEC9D
:100CC60009F00150300FDF6E40C001F041C002F064
:100CD60042C003F043C004F04A50056E066A076A34
:100CE600086AFDEC09F001C040F002C041F003C003
:100CF60042F004C043F00A0E016E4A506BEC0BF052
:100D06004A6E452A4050411042104310D8B40ED0C6
:100D1600C5D744504524D96EDA6A300EDF6E0A0E06
:100D2600016E4A506BEC0BF04A6E452A4A50D8B415
:100D36001200EFD70FC013F0146A156A0E3413367B
:100D460001E314801350166E1650D8A407D0000E77
:100D56000D6E000E0E6E000E0F6E120012C013F016
:100D6600146A156A1134133601E3148013501B6E8E
:100D76001B50D8A407D0000E0D6E000E0E6E000E8E
:100D86000F6E12001B507B0F16260FC01BF0125061
:100D96001B1A800E1B160E8E118EFF0E1016FF0EDE
:100DA6001116000E1216000E176E000E186E000EAB
:100DB600196E070E1A6E0DA006D010501726115088
:100DC600182212501922D8900F320E320D32D890B6
:100DD6001036113612361A2EEED7090E1A6E0DA0DF
:100DE60006D0105017261150182212501922D890EA
:100DF6000F320E320D32D8901932183217321A2E9F
:100E0600EED717C001F018C002F019C003F016C0E3
:100E160004F01BC005F0E3EC07F001C00DF002C0C2
:100E26000EF003C00FF012001EC020F0216A226AE5
:100E36001D34203601E3218020502A6E2A50D8A482
:100E460009D0000E1C6E000E1D6E000E1E6E000EEA
:100E56001F6E1200170E206E1CC021F01DC022F05E
:100E66001EC023F02028246E04D0D89023322232CC
:100E76002132242EFAD72150256E1D8EFF0E1C1608
:100E8600FF0E1D16000E1E161C50266E1D50276ED8
:100E96001E50286E296A8E0E2A5E2AAE0DD02A5062
:100EA600800A8F0FD8A0CDD7D89029322832273282
:100EB60026322A3EF9D70DD0170E2A6407D0C1D79D
:100EC600D89026362736283629362A062A50D8A418
:100ED600F7D72550D8B408D0291E281E271E266C01
:100EE600000E27222822292226C01CF027C01DF02A
:100EF60028C01EF029C01FF01200056EF00E8116E4
:100F0600F00E9316939C939A93988A9C8A9A8A9841
:100F160065EC0CF0300E2DEC0BF00D0E046EAF0EE2
:100F2600036EB60EE82EFED7032EFCD7042EFAD794
:100F360000D0300E2DEC0BF0030E046E8A0E036EFD
:100F4600560EE82EFED7032EFCD7042EFAD7320E05
:100F56002DEC0BF088EC0BF00009D8A4FBD788EC3D
:100F66000BF00009D8A4FBD705502DEC0BF088EC4C
:100F76000BF00009D8A4FBD7080E2DEC0BF088EC7B
:100F86000BF00009D8A4FBD70F0E2DEC0BF088EC64
:100F96000BF00009D8A4FBD7010E2DEC0BF088EC62
:100FA6000BF00009D8A4FBD7040E2DEC0BF088EC4F
:100FB6000BF00009D8A4FBD7800EA9EC0AF01200AA
:100FC6000450D8B405D0015002100310D8A40CD098
:100FD600000E016E000E026E000E036E1200042A51
:100FE600D890033202320132000E0114066E000E52
:100FF6000214076EFE0E0314086E06500710081042
:10100600D8B40CD0ECD7042A010E0126000E022219
:10101600000E0322D890033202320132000E011470
:10102600066E000E0214076EFF0E0314086E0650BD
:1010360007100810D8B406D0E6D70406D8900136B3
:101046000236033602BE03D0020E0460F6D704A0B1
:10105600029ED8900432045003120550D8A4038E81
:1010660001C001F002C002F003C003F01200750EC9
:101076000918D8B407D0400E08240C6E0D6A000E6D
:101086000D2203D008C00CF00D6A0CC00EF0000E45
:101096000F6E2CD088EC0BF00009D8A4FBD70E50AD
:1010A600A9EC0AF088EC0BF00009D8A4FBD70F5086
:1010B60006240A6E000E07200B6E0AC0F6FF0BC050
:1010C600F7FFF86A070EF76403D00800F55005D05D
:1010D600F6CFE9FFF7CFEAFFEF500EEC0BF088EC06
:1010E6000BF00009D8A4FBD70E2A0F2A06C001F080
:1010F60007C002F04CEC0BF00A6E0A500F5CD8B039
:101106001200C8D75850D8A430D0020E336E970EAE
:10111600F3EC04F036BE29D036503510341004E115
:10112600650E335CD8A021D0000E386E010EB46E69
:101136002C0E016E010E026E000E036E000E046E82
:10114600CCEC0AF0110EB46E2C0E016E010E026E7E
:10115600000E036E000E046ECCEC0AF0382A050E63
:101166003864E4D7010EB46E582A020E336E970E19
:10117600F3EC04F036BE08D036503510341006E1D4
:10118600640E335CD8B01200000E586E12002C6844
:1011960035D0210E066E0650D8A4080E076E000E36
:1011A600086E750E096E3AEC08F01A0E086E9BEC86
:1011B60005F01A0E066E84EC0AF02C6E2C50D8B48C
:1011C60003D00F0E2C6418D02FEC0CF0010E066E17
:1011D6000650D8A4080E076E000E086E750E096E2E
:1011E6003AEC08F0E80E016E030E026E000E036E76
:1011F600000E046ECCEC0AF02FEC0CF02C50D8B498
:10120600C8D7100E2C60C5D71A0E066E84EC0AF0ED
:101216001200000E306E2EAE06D02D6C2E1ED8B0EB
:101226002E2A010E306E2CAE06D02B6C2C1ED8B09A
:101236002C2A010E301A000E326E000E316E2D5021
:101246002E10D8B41CD0010E2F6E04D0D8902D3697
:101256002E362F2A2EAEFAD7D890313632362D506A
:101266002B5C2E502C58D8A005D02D502B5E2E501E
:101276002C5A3180D8902E322D322F2EEDD7305069
:10128600D8B404D0316C321ED8B0322A31C02BF01B
:1012960032C02CF01200000E096E000E0A6E000E0F
:1012A6000B6E000E0C6E0550061007100810D8B411
:1012B6002AD0010E0D6E06D0D890053606360736B2
:1012C60008360D2A08AEF8D7D89009360A360B36F6
:1012D6000C360550015C065002580750035808505A
:1012E6000458D8A009D00550015E0650025A07508E
:1012F600035A0850045A0980D89008320732063239
:1013060005320D2EE1D709C001F00AC002F00BC06C
:1013160003F00CC004F01200000E306E2CAE06D0A6
:101326002B6C2C1ED8B02C2A010E306E2EAE04D09B
:101336002D6C2E1ED8B02E2A2D502E10D8B418D0B3
:10134600010E2F6E04D0D8902D362E362F2A2EAEB3
:10135600FAD72D502B5C2E502C58D8A004D02D50E7
:101366002B5E2E502C5AD8902E322D322F2EF1D79E
:101376003050D8B404D02B6C2C1ED8B02C2A2BC0DD
:101386002BF02CC02CF0120042EC0CF054EC0CF0BC
:10139600D9EC0BF0516E5150526E536A546A556A2D
:1013A600CAEC08F0566E000E576E52C04BF053C092
:1013B6004CF054C04DF055C04EF056C04FF057C0DB
:1013C60050F023EC04F0570E016E520E026E56C01A
:1013D60003F01BEC0CF0570E016E520E026E56C057
:1013E60003F0C1EC0BF0560E2D6E72EC0CF085EC92
:1013F60008F0DBD70550061007100810D8B424D023
:10140600010E096E06D0D890053606360736083620
:10141600092A08AEF8D70550015C06500258075055
:10142600035808500458D8A008D00550015E06504D
:10143600025A0750035A0850045AD8900832073205
:1014460006320532092EE7D701C001F002C002F0CC
:1014560003C003F004C004F01200056E000EC26E55
:10146600000EC06ED89001303C0BC26E01C003F076
:10147600033AF00E0316300E031602500F0B03103C
:10148600C16E05C003F0D8900336D8900336380EE7
:10149600031605C004F0043A0F0E0416070E0416D0
:1014A6000550800B04100310C06E01AE03D09E9C45
:1014B6009D8CF28CC28012003BBE09D038C038F039
:1014C60039C039F03AC03AF03BC03BF0120038C0A0
:1014D6003CF039C03DF03AC03EF03BC03FF03C1E08
:1014E6003D1E3E1E3F1E3C2A000E3D223E223F224E
:1014F6003CC038F03DC039F03EC03AF03FC03BF04A
:101506001200000E086E010E096E06C001F0026A96
:101516004CEC0BF0076EFF0E07240A6E0B6AFF0EEB
:101526000B220BBE11D006500A24D96EDA6ADF50A0
:10153600D00F0902F35008260A0E0902F350096E6D
:101546000A06D8A00B06EDD708501200026EF00E60
:101556009316F00E811602C001F0800E01120138BA
:101566000F0B0F0B81128A9C8A9A9DEC0CF08A88CD
:101576009DEC0CF08A98F00E811602500F0B81122A
:101586009DEC0CF08A889DEC0CF08A980F0E931255
:101596001200000E066E000E076E000E086E000E9C
:1015A600096E0ED0070E056E7D0EE82EFED7052EAF
:1015B600FCD700F0010E0626000E0722082209229B
:1015C6000150065C02500758035008580450095849
:1015D600D8B01200E7D7056E750E0418D8B407D038
:1015E600400E0324066E076A000E072203D003C0CE
:1015F60006F0076A0650A9EC0AF088EC0BF0000921
:10160600D8A4FBD705500EEC0BF088EC0BF00009C4
:10161600D8B41200FAD7016EF00E9316F00E8116AA
:1016260001380F0B0F0B81128A8A8A9C9DEC0CF0F5
:101636008A889DEC0CF08A98F00E811601500F0BEB
:1016460081129DEC0CF08A889DEC0CF08A980F0EA6
:1016560093121200016EF00E9316F00E81160138E9
:101666000F0B0F0B81128A9C8A9A9DEC0CF08A88CC
:101676009DEC0CF08A98F00E811601500F0B81122A
:101686009DEC0CF08A889DEC0CF08A980F0E931254
:101696001200000E056E01D0052A05500124036EC6
:1016A600000E0220046E03C0F6FF04C0F7FFF86ABE
:1016B600070EF76403D00800F55005D0F6CFE9FF12
:1016C600F7CFEAFFEF500009D8A4E6D7055012007D
:1016D600026E000E046E0150D8B415D0010E036ED2
:1016E60003D0D8900136032A01AEFBD7D890043632
:1016F6000150025CD8A003D00150025E0480D8904D
:101706000132032EF3D7045012008A8C8A9A9DEC7C
:101716000CF08A889DEC0CF081A60AD08A989DEC84
:101726000CF08A889DEC0CF08A988A9C010E1200B7
:101736008A989DEC0CF08A889DEC0CF08A988A9C1D
:10174600000E1200000E0C6E0AAE06D0096C0A1EC0
:10175600D8B00A2A010E0C6E09C001F00AC002F0C8
:10176600036A8E0E046E0CC005F0E3EC07F001C0B0
:1017760009F002C00AF003C00BF0120082A21200A8
:101786000150D96EDA6ADF50D8B412000150D96E12
:10179600DA6ADF060250D96EDA6A0350DE5E000EA0
:1017A600DE5ADE5ADE5A82A21200FDD7110E066EEE
:1017B6000650D8A4080E076E000E086E750E096E48
:1017C6003AEC08F01A0E086E9BEC05F02FEC0CF0C4
:1017D6001A0E066E84EC0AF01200220EF66E190E30
:1017E600F76E000EF86E00EEBAF010EE0CF009007F
:1017F600F5CFEEFFE550E150FAE1586A000EF86EBB
:101806000001C7EF09F0000E036E07D00150032454
:10181600D96EDA6A200EDF6E032A0250035CD8A066
:10182600F5D701500224D96EDA6A000EDF6E120077
:1018360083A612000150D96EDA6A050EDF60120027
:101846000150D96EDA6ADF2A0250D96EDA6A03507D
:10185600DF2683A61200FDD7010E2DEC0BF088ECD7
:101866000BF00009D8A4FBD7500E016E000E026ED5
:10187600000E036E000E046ECCEC0AF01200F80E99
:10188600956E0F0E926E010EB46E000E936E000EE4
:10189600946E040E016EF90E026ED50E30EC0AF04F
:1018A6001200280E80EC07F088EC0BF00009D8A493
:1018B600FBD7060E2DEC0BF088EC0BF00009D8B424
:1018C6001200FAD7020E026E860E016E990EE82EEF
:1018D600FED7012EFCD7022EFAD700F0120082A006
:1018E60012002FEC0CF0CAEC08F02E6E2D50D96EBB
:1018F600DA6A2EC0DFFF1200026EC2CF01F0C30EFD
:101906000116D89002303C0B0110C26E1200C45072
:10191600036EC350016E03C002F01200821112144E
:101926002122244142448184C2A202D0010E120027
:10193600000E1200300EE82EFED71200C2821200F0
:020000040030CA
:0E000000000C091EFF8180FF0FC00FE00F40B3
:00000001FF
